{
  "_format": "hh3-artifact-1",
  "contractName": "BurnableToken",
  "sourceName": "contracts/BurnableToken.sol",
  "abi": [
    {
      "inputs": [
        {
          "internalType": "string",
          "name": "name_",
          "type": "string"
        },
        {
          "internalType": "string",
          "name": "symbol_",
          "type": "string"
        }
      ],
      "stateMutability": "nonpayable",
      "type": "constructor"
    },
    {
      "inputs": [],
      "name": "AccessControlBadConfirmation",
      "type": "error"
    },
    {
      "inputs": [
        {
          "internalType": "address",
          "name": "account",
          "type": "address"
        },
        {
          "internalType": "bytes32",
          "name": "neededRole",
          "type": "bytes32"
        }
      ],
      "name": "AccessControlUnauthorizedAccount",
      "type": "error"
    },
    {
      "inputs": [
        {
          "internalType": "address",
          "name": "spender",
          "type": "address"
        },
        {
          "internalType": "uint256",
          "name": "allowance",
          "type": "uint256"
        },
        {
          "internalType": "uint256",
          "name": "needed",
          "type": "uint256"
        }
      ],
      "name": "ERC20InsufficientAllowance",
      "type": "error"
    },
    {
      "inputs": [
        {
          "internalType": "address",
          "name": "sender",
          "type": "address"
        },
        {
          "internalType": "uint256",
          "name": "balance",
          "type": "uint256"
        },
        {
          "internalType": "uint256",
          "name": "needed",
          "type": "uint256"
        }
      ],
      "name": "ERC20InsufficientBalance",
      "type": "error"
    },
    {
      "inputs": [
        {
          "internalType": "address",
          "name": "approver",
          "type": "address"
        }
      ],
      "name": "ERC20InvalidApprover",
      "type": "error"
    },
    {
      "inputs": [
        {
          "internalType": "address",
          "name": "receiver",
          "type": "address"
        }
      ],
      "name": "ERC20InvalidReceiver",
      "type": "error"
    },
    {
      "inputs": [
        {
          "internalType": "address",
          "name": "sender",
          "type": "address"
        }
      ],
      "name": "ERC20InvalidSender",
      "type": "error"
    },
    {
      "inputs": [
        {
          "internalType": "address",
          "name": "spender",
          "type": "address"
        }
      ],
      "name": "ERC20InvalidSpender",
      "type": "error"
    },
    {
      "anonymous": false,
      "inputs": [
        {
          "indexed": true,
          "internalType": "address",
          "name": "owner",
          "type": "address"
        },
        {
          "indexed": true,
          "internalType": "address",
          "name": "spender",
          "type": "address"
        },
        {
          "indexed": false,
          "internalType": "uint256",
          "name": "value",
          "type": "uint256"
        }
      ],
      "name": "Approval",
      "type": "event"
    },
    {
      "anonymous": false,
      "inputs": [
        {
          "indexed": true,
          "internalType": "bytes32",
          "name": "role",
          "type": "bytes32"
        },
        {
          "indexed": true,
          "internalType": "bytes32",
          "name": "previousAdminRole",
          "type": "bytes32"
        },
        {
          "indexed": true,
          "internalType": "bytes32",
          "name": "newAdminRole",
          "type": "bytes32"
        }
      ],
      "name": "RoleAdminChanged",
      "type": "event"
    },
    {
      "anonymous": false,
      "inputs": [
        {
          "indexed": true,
          "internalType": "bytes32",
          "name": "role",
          "type": "bytes32"
        },
        {
          "indexed": true,
          "internalType": "address",
          "name": "account",
          "type": "address"
        },
        {
          "indexed": true,
          "internalType": "address",
          "name": "sender",
          "type": "address"
        }
      ],
      "name": "RoleGranted",
      "type": "event"
    },
    {
      "anonymous": false,
      "inputs": [
        {
          "indexed": true,
          "internalType": "bytes32",
          "name": "role",
          "type": "bytes32"
        },
        {
          "indexed": true,
          "internalType": "address",
          "name": "account",
          "type": "address"
        },
        {
          "indexed": true,
          "internalType": "address",
          "name": "sender",
          "type": "address"
        }
      ],
      "name": "RoleRevoked",
      "type": "event"
    },
    {
      "anonymous": false,
      "inputs": [
        {
          "indexed": true,
          "internalType": "address",
          "name": "from",
          "type": "address"
        },
        {
          "indexed": true,
          "internalType": "address",
          "name": "to",
          "type": "address"
        },
        {
          "indexed": false,
          "internalType": "uint256",
          "name": "value",
          "type": "uint256"
        }
      ],
      "name": "Transfer",
      "type": "event"
    },
    {
      "inputs": [],
      "name": "DEFAULT_ADMIN_ROLE",
      "outputs": [
        {
          "internalType": "bytes32",
          "name": "",
          "type": "bytes32"
        }
      ],
      "stateMutability": "view",
      "type": "function"
    },
    {
      "inputs": [],
      "name": "MINTER_ROLE",
      "outputs": [
        {
          "internalType": "bytes32",
          "name": "",
          "type": "bytes32"
        }
      ],
      "stateMutability": "view",
      "type": "function"
    },
    {
      "inputs": [
        {
          "internalType": "address",
          "name": "owner",
          "type": "address"
        },
        {
          "internalType": "address",
          "name": "spender",
          "type": "address"
        }
      ],
      "name": "allowance",
      "outputs": [
        {
          "internalType": "uint256",
          "name": "",
          "type": "uint256"
        }
      ],
      "stateMutability": "view",
      "type": "function"
    },
    {
      "inputs": [
        {
          "internalType": "address",
          "name": "spender",
          "type": "address"
        },
        {
          "internalType": "uint256",
          "name": "value",
          "type": "uint256"
        }
      ],
      "name": "approve",
      "outputs": [
        {
          "internalType": "bool",
          "name": "",
          "type": "bool"
        }
      ],
      "stateMutability": "nonpayable",
      "type": "function"
    },
    {
      "inputs": [
        {
          "internalType": "address",
          "name": "account",
          "type": "address"
        }
      ],
      "name": "balanceOf",
      "outputs": [
        {
          "internalType": "uint256",
          "name": "",
          "type": "uint256"
        }
      ],
      "stateMutability": "view",
      "type": "function"
    },
    {
      "inputs": [
        {
          "internalType": "uint256",
          "name": "value",
          "type": "uint256"
        }
      ],
      "name": "burn",
      "outputs": [],
      "stateMutability": "nonpayable",
      "type": "function"
    },
    {
      "inputs": [
        {
          "internalType": "address",
          "name": "account",
          "type": "address"
        },
        {
          "internalType": "uint256",
          "name": "amount",
          "type": "uint256"
        }
      ],
      "name": "burnFrom",
      "outputs": [],
      "stateMutability": "nonpayable",
      "type": "function"
    },
    {
      "inputs": [],
      "name": "decimals",
      "outputs": [
        {
          "internalType": "uint8",
          "name": "",
          "type": "uint8"
        }
      ],
      "stateMutability": "view",
      "type": "function"
    },
    {
      "inputs": [
        {
          "internalType": "bytes32",
          "name": "role",
          "type": "bytes32"
        }
      ],
      "name": "getRoleAdmin",
      "outputs": [
        {
          "internalType": "bytes32",
          "name": "",
          "type": "bytes32"
        }
      ],
      "stateMutability": "view",
      "type": "function"
    },
    {
      "inputs": [
        {
          "internalType": "bytes32",
          "name": "role",
          "type": "bytes32"
        },
        {
          "internalType": "address",
          "name": "account",
          "type": "address"
        }
      ],
      "name": "grantRole",
      "outputs": [],
      "stateMutability": "nonpayable",
      "type": "function"
    },
    {
      "inputs": [
        {
          "internalType": "bytes32",
          "name": "role",
          "type": "bytes32"
        },
        {
          "internalType": "address",
          "name": "account",
          "type": "address"
        }
      ],
      "name": "hasRole",
      "outputs": [
        {
          "internalType": "bool",
          "name": "",
          "type": "bool"
        }
      ],
      "stateMutability": "view",
      "type": "function"
    },
    {
      "inputs": [
        {
          "internalType": "address",
          "name": "to",
          "type": "address"
        },
        {
          "internalType": "uint256",
          "name": "amount",
          "type": "uint256"
        }
      ],
      "name": "mint",
      "outputs": [],
      "stateMutability": "nonpayable",
      "type": "function"
    },
    {
      "inputs": [],
      "name": "name",
      "outputs": [
        {
          "internalType": "string",
          "name": "",
          "type": "string"
        }
      ],
      "stateMutability": "view",
      "type": "function"
    },
    {
      "inputs": [
        {
          "internalType": "bytes32",
          "name": "role",
          "type": "bytes32"
        },
        {
          "internalType": "address",
          "name": "callerConfirmation",
          "type": "address"
        }
      ],
      "name": "renounceRole",
      "outputs": [],
      "stateMutability": "nonpayable",
      "type": "function"
    },
    {
      "inputs": [
        {
          "internalType": "bytes32",
          "name": "role",
          "type": "bytes32"
        },
        {
          "internalType": "address",
          "name": "account",
          "type": "address"
        }
      ],
      "name": "revokeRole",
      "outputs": [],
      "stateMutability": "nonpayable",
      "type": "function"
    },
    {
      "inputs": [
        {
          "internalType": "bytes4",
          "name": "interfaceId",
          "type": "bytes4"
        }
      ],
      "name": "supportsInterface",
      "outputs": [
        {
          "internalType": "bool",
          "name": "",
          "type": "bool"
        }
      ],
      "stateMutability": "view",
      "type": "function"
    },
    {
      "inputs": [],
      "name": "symbol",
      "outputs": [
        {
          "internalType": "string",
          "name": "",
          "type": "string"
        }
      ],
      "stateMutability": "view",
      "type": "function"
    },
    {
      "inputs": [],
      "name": "totalSupply",
      "outputs": [
        {
          "internalType": "uint256",
          "name": "",
          "type": "uint256"
        }
      ],
      "stateMutability": "view",
      "type": "function"
    },
    {
      "inputs": [
        {
          "internalType": "address",
          "name": "to",
          "type": "address"
        },
        {
          "internalType": "uint256",
          "name": "value",
          "type": "uint256"
        }
      ],
      "name": "transfer",
      "outputs": [
        {
          "internalType": "bool",
          "name": "",
          "type": "bool"
        }
      ],
      "stateMutability": "nonpayable",
      "type": "function"
    },
    {
      "inputs": [
        {
          "internalType": "address",
          "name": "from",
          "type": "address"
        },
        {
          "internalType": "address",
          "name": "to",
          "type": "address"
        },
        {
          "internalType": "uint256",
          "name": "value",
          "type": "uint256"
        }
      ],
      "name": "transferFrom",
      "outputs": [
        {
          "internalType": "bool",
          "name": "",
          "type": "bool"
        }
      ],
      "stateMutability": "nonpayable",
      "type": "function"
    }
  ],
  "bytecode": "0x608060405234801561000f575f5ffd5b50604051612201380380612201833981810160405281019061003191906105fc565b818181600390816100429190610882565b5080600490816100529190610882565b5050506100675f5f1b336100b060201b60201c565b506100987f9f2df0fed2c77648de5860a4cc508cd0818c85b8b8a1ab4ceeef8d981c8956a6336100b060201b60201c565b506100a9335f6101a660201b60201c565b5050610a66565b5f6100c1838361022b60201b60201c565b61019c57600160055f8581526020019081526020015f205f015f8473ffffffffffffffffffffffffffffffffffffffff1673ffffffffffffffffffffffffffffffffffffffff1681526020019081526020015f205f6101000a81548160ff02191690831515021790555061013961028f60201b60201c565b73ffffffffffffffffffffffffffffffffffffffff168273ffffffffffffffffffffffffffffffffffffffff16847f2f8788117e7eff1d82e926ec794901d17c78024a50270940304540a733656f0d60405160405180910390a4600190506101a0565b5f90505b92915050565b5f73ffffffffffffffffffffffffffffffffffffffff168273ffffffffffffffffffffffffffffffffffffffff1603610216575f6040517fec442f0500000000000000000000000000000000000000000000000000000000815260040161020d9190610990565b60405180910390fd5b6102275f838361029660201b60201c565b5050565b5f60055f8481526020019081526020015f205f015f8373ffffffffffffffffffffffffffffffffffffffff1673ffffffffffffffffffffffffffffffffffffffff1681526020019081526020015f205f9054906101000a900460ff16905092915050565b5f33905090565b5f73ffffffffffffffffffffffffffffffffffffffff168373ffffffffffffffffffffffffffffffffffffffff16036102e6578060025f8282546102da91906109d6565b925050819055506103b4565b5f5f5f8573ffffffffffffffffffffffffffffffffffffffff1673ffffffffffffffffffffffffffffffffffffffff1681526020019081526020015f205490508181101561036f578381836040517fe450d38c00000000000000000000000000000000000000000000000000000000815260040161036693929190610a18565b60405180910390fd5b8181035f5f8673ffffffffffffffffffffffffffffffffffffffff1673ffffffffffffffffffffffffffffffffffffffff1681526020019081526020015f2081905550505b5f73ffffffffffffffffffffffffffffffffffffffff168273ffffffffffffffffffffffffffffffffffffffff16036103fb578060025f8282540392505081905550610445565b805f5f8473ffffffffffffffffffffffffffffffffffffffff1673ffffffffffffffffffffffffffffffffffffffff1681526020019081526020015f205f82825401925050819055505b8173ffffffffffffffffffffffffffffffffffffffff168373ffffffffffffffffffffffffffffffffffffffff167fddf252ad1be2c89b69c2b068fc378daa952ba7f163c4a11628f55a4df523b3ef836040516104a29190610a4d565b60405180910390a3505050565b5f604051905090565b5f5ffd5b5f5ffd5b5f5ffd5b5f5ffd5b5f601f19601f8301169050919050565b7f4e487b71000000000000000000000000000000000000000000000000000000005f52604160045260245ffd5b61050e826104c8565b810181811067ffffffffffffffff8211171561052d5761052c6104d8565b5b80604052505050565b5f61053f6104af565b905061054b8282610505565b919050565b5f67ffffffffffffffff82111561056a576105696104d8565b5b610573826104c8565b9050602081019050919050565b8281835e5f83830152505050565b5f6105a061059b84610550565b610536565b9050828152602081018484840111156105bc576105bb6104c4565b5b6105c7848285610580565b509392505050565b5f82601f8301126105e3576105e26104c0565b5b81516105f384826020860161058e565b91505092915050565b5f5f60408385031215610612576106116104b8565b5b5f83015167ffffffffffffffff81111561062f5761062e6104bc565b5b61063b858286016105cf565b925050602083015167ffffffffffffffff81111561065c5761065b6104bc565b5b610668858286016105cf565b9150509250929050565b5f81519050919050565b7f4e487b71000000000000000000000000000000000000000000000000000000005f52602260045260245ffd5b5f60028204905060018216806106c057607f821691505b6020821081036106d3576106d261067c565b5b50919050565b5f819050815f5260205f209050919050565b5f6020601f8301049050919050565b5f82821b905092915050565b5f600883026107357fffffffffffffffffffffffffffffffffffffffffffffffffffffffffffffffff826106fa565b61073f86836106fa565b95508019841693508086168417925050509392505050565b5f819050919050565b5f819050919050565b5f61078361077e61077984610757565b610760565b610757565b9050919050565b5f819050919050565b61079c83610769565b6107b06107a88261078a565b848454610706565b825550505050565b5f5f905090565b6107c76107b8565b6107d2818484610793565b505050565b5b818110156107f5576107ea5f826107bf565b6001810190506107d8565b5050565b601f82111561083a5761080b816106d9565b610814846106eb565b81016020851015610823578190505b61083761082f856106eb565b8301826107d7565b50505b505050565b5f82821c905092915050565b5f61085a5f198460080261083f565b1980831691505092915050565b5f610872838361084b565b9150826002028217905092915050565b61088b82610672565b67ffffffffffffffff8111156108a4576108a36104d8565b5b6108ae82546106a9565b6108b98282856107f9565b5f60209050601f8311600181146108ea575f84156108d8578287015190505b6108e28582610867565b865550610949565b601f1984166108f8866106d9565b5f5b8281101561091f578489015182556001820191506020850194506020810190506108fa565b8683101561093c5784890151610938601f89168261084b565b8355505b6001600288020188555050505b505050505050565b5f73ffffffffffffffffffffffffffffffffffffffff82169050919050565b5f61097a82610951565b9050919050565b61098a81610970565b82525050565b5f6020820190506109a35f830184610981565b92915050565b7f4e487b71000000000000000000000000000000000000000000000000000000005f52601160045260245ffd5b5f6109e082610757565b91506109eb83610757565b9250828201905080821115610a0357610a026109a9565b5b92915050565b610a1281610757565b82525050565b5f606082019050610a2b5f830186610981565b610a386020830185610a09565b610a456040830184610a09565b949350505050565b5f602082019050610a605f830184610a09565b92915050565b61178e80610a735f395ff3fe608060405234801561000f575f5ffd5b506004361061012a575f3560e01c806342966c68116100ab578063a217fddf1161006f578063a217fddf14610352578063a9059cbb14610370578063d5391393146103a0578063d547741f146103be578063dd62ed3e146103da5761012a565b806342966c681461029c57806370a08231146102b857806379cc6790146102e857806391d148541461030457806395d89b41146103345761012a565b8063248a9ca3116100f2578063248a9ca3146101fa5780632f2ff15d1461022a578063313ce5671461024657806336568abe1461026457806340c10f19146102805761012a565b806301ffc9a71461012e57806306fdde031461015e578063095ea7b31461017c57806318160ddd146101ac57806323b872dd146101ca575b5f5ffd5b6101486004803603810190610143919061125a565b61040a565b604051610155919061129f565b60405180910390f35b610166610483565b6040516101739190611328565b60405180910390f35b610196600480360381019061019191906113d5565b610513565b6040516101a3919061129f565b60405180910390f35b6101b4610535565b6040516101c19190611422565b60405180910390f35b6101e460048036038101906101df919061143b565b61053e565b6040516101f1919061129f565b60405180910390f35b610214600480360381019061020f91906114be565b61056c565b60405161022191906114f8565b60405180910390f35b610244600480360381019061023f9190611511565b610589565b005b61024e6105ab565b60405161025b919061156a565b60405180910390f35b61027e60048036038101906102799190611511565b6105b3565b005b61029a600480360381019061029591906113d5565b61062e565b005b6102b660048036038101906102b19190611583565b610667565b005b6102d260048036038101906102cd91906115ae565b61067b565b6040516102df9190611422565b60405180910390f35b61030260048036038101906102fd91906113d5565b6106c0565b005b61031e60048036038101906103199190611511565b6106f9565b60405161032b919061129f565b60405180910390f35b61033c61075d565b6040516103499190611328565b60405180910390f35b61035a6107ed565b60405161036791906114f8565b60405180910390f35b61038a600480360381019061038591906113d5565b6107f3565b604051610397919061129f565b60405180910390f35b6103a8610815565b6040516103b591906114f8565b60405180910390f35b6103d860048036038101906103d39190611511565b610839565b005b6103f460048036038101906103ef91906115d9565b61085b565b6040516104019190611422565b60405180910390f35b5f7f7965db0b000000000000000000000000000000000000000000000000000000007bffffffffffffffffffffffffffffffffffffffffffffffffffffffff1916827bffffffffffffffffffffffffffffffffffffffffffffffffffffffff1916148061047c575061047b826108dd565b5b9050919050565b60606003805461049290611644565b80601f01602080910402602001604051908101604052809291908181526020018280546104be90611644565b80156105095780601f106104e057610100808354040283529160200191610509565b820191905f5260205f20905b8154815290600101906020018083116104ec57829003601f168201915b5050505050905090565b5f5f61051d610946565b905061052a81858561094d565b600191505092915050565b5f600254905090565b5f5f610548610946565b905061055585828561095f565b6105608585856109f2565b60019150509392505050565b5f60055f8381526020019081526020015f20600101549050919050565b6105928261056c565b61059b81610ae2565b6105a58383610af6565b50505050565b5f6006905090565b6105bb610946565b73ffffffffffffffffffffffffffffffffffffffff168173ffffffffffffffffffffffffffffffffffffffff161461061f576040517f6697b23200000000000000000000000000000000000000000000000000000000815260040160405180910390fd5b6106298282610be0565b505050565b7f9f2df0fed2c77648de5860a4cc508cd0818c85b8b8a1ab4ceeef8d981c8956a661065881610ae2565b6106628383610cca565b505050565b610678610672610946565b82610d49565b50565b5f5f5f8373ffffffffffffffffffffffffffffffffffffffff1673ffffffffffffffffffffffffffffffffffffffff1681526020019081526020015f20549050919050565b7f9f2df0fed2c77648de5860a4cc508cd0818c85b8b8a1ab4ceeef8d981c8956a66106ea81610ae2565b6106f48383610d49565b505050565b5f60055f8481526020019081526020015f205f015f8373ffffffffffffffffffffffffffffffffffffffff1673ffffffffffffffffffffffffffffffffffffffff1681526020019081526020015f205f9054906101000a900460ff16905092915050565b60606004805461076c90611644565b80601f016020809104026020016040519081016040528092919081815260200182805461079890611644565b80156107e35780601f106107ba576101008083540402835291602001916107e3565b820191905f5260205f20905b8154815290600101906020018083116107c657829003601f168201915b5050505050905090565b5f5f1b81565b5f5f6107fd610946565b905061080a8185856109f2565b600191505092915050565b7f9f2df0fed2c77648de5860a4cc508cd0818c85b8b8a1ab4ceeef8d981c8956a681565b6108428261056c565b61084b81610ae2565b6108558383610be0565b50505050565b5f60015f8473ffffffffffffffffffffffffffffffffffffffff1673ffffffffffffffffffffffffffffffffffffffff1681526020019081526020015f205f8373ffffffffffffffffffffffffffffffffffffffff1673ffffffffffffffffffffffffffffffffffffffff1681526020019081526020015f2054905092915050565b5f7f01ffc9a7000000000000000000000000000000000000000000000000000000007bffffffffffffffffffffffffffffffffffffffffffffffffffffffff1916827bffffffffffffffffffffffffffffffffffffffffffffffffffffffff1916149050919050565b5f33905090565b61095a8383836001610dc8565b505050565b5f61096a848461085b565b90507fffffffffffffffffffffffffffffffffffffffffffffffffffffffffffffffff8110156109ec57818110156109dd578281836040517ffb8f41b20000000000000000000000000000000000000000000000000000000081526004016109d493929190611683565b60405180910390fd5b6109eb84848484035f610dc8565b5b50505050565b5f73ffffffffffffffffffffffffffffffffffffffff168373ffffffffffffffffffffffffffffffffffffffff1603610a62575f6040517f96c6fd1e000000000000000000000000000000000000000000000000000000008152600401610a5991906116b8565b60405180910390fd5b5f73ffffffffffffffffffffffffffffffffffffffff168273ffffffffffffffffffffffffffffffffffffffff1603610ad2575f6040517fec442f05000000000000000000000000000000000000000000000000000000008152600401610ac991906116b8565b60405180910390fd5b610add838383610f97565b505050565b610af381610aee610946565b6111b0565b50565b5f610b0183836106f9565b610bd657600160055f8581526020019081526020015f205f015f8473ffffffffffffffffffffffffffffffffffffffff1673ffffffffffffffffffffffffffffffffffffffff1681526020019081526020015f205f6101000a81548160ff021916908315150217905550610b73610946565b73ffffffffffffffffffffffffffffffffffffffff168273ffffffffffffffffffffffffffffffffffffffff16847f2f8788117e7eff1d82e926ec794901d17c78024a50270940304540a733656f0d60405160405180910390a460019050610bda565b5f90505b92915050565b5f610beb83836106f9565b15610cc0575f60055f8581526020019081526020015f205f015f8473ffffffffffffffffffffffffffffffffffffffff1673ffffffffffffffffffffffffffffffffffffffff1681526020019081526020015f205f6101000a81548160ff021916908315150217905550610c5d610946565b73ffffffffffffffffffffffffffffffffffffffff168273ffffffffffffffffffffffffffffffffffffffff16847ff6391f5c32d9c69d2a47ea670b442974b53935d1edc7fd64eb21e047a839171b60405160405180910390a460019050610cc4565b5f90505b92915050565b5f73ffffffffffffffffffffffffffffffffffffffff168273ffffffffffffffffffffffffffffffffffffffff1603610d3a575f6040517fec442f05000000000000000000000000000000000000000000000000000000008152600401610d3191906116b8565b60405180910390fd5b610d455f8383610f97565b5050565b5f73ffffffffffffffffffffffffffffffffffffffff168273ffffffffffffffffffffffffffffffffffffffff1603610db9575f6040517f96c6fd1e000000000000000000000000000000000000000000000000000000008152600401610db091906116b8565b60405180910390fd5b610dc4825f83610f97565b5050565b5f73ffffffffffffffffffffffffffffffffffffffff168473ffffffffffffffffffffffffffffffffffffffff1603610e38575f6040517fe602df05000000000000000000000000000000000000000000000000000000008152600401610e2f91906116b8565b60405180910390fd5b5f73ffffffffffffffffffffffffffffffffffffffff168373ffffffffffffffffffffffffffffffffffffffff1603610ea8575f6040517f94280d62000000000000000000000000000000000000000000000000000000008152600401610e9f91906116b8565b60405180910390fd5b8160015f8673ffffffffffffffffffffffffffffffffffffffff1673ffffffffffffffffffffffffffffffffffffffff1681526020019081526020015f205f8573ffffffffffffffffffffffffffffffffffffffff1673ffffffffffffffffffffffffffffffffffffffff1681526020019081526020015f20819055508015610f91578273ffffffffffffffffffffffffffffffffffffffff168473ffffffffffffffffffffffffffffffffffffffff167f8c5be1e5ebec7d5bd14f71427d1e84f3dd0314c0f7b2291e5b200ac8c7c3b92584604051610f889190611422565b60405180910390a35b50505050565b5f73ffffffffffffffffffffffffffffffffffffffff168373ffffffffffffffffffffffffffffffffffffffff1603610fe7578060025f828254610fdb91906116fe565b925050819055506110b5565b5f5f5f8573ffffffffffffffffffffffffffffffffffffffff1673ffffffffffffffffffffffffffffffffffffffff1681526020019081526020015f2054905081811015611070578381836040517fe450d38c00000000000000000000000000000000000000000000000000000000815260040161106793929190611683565b60405180910390fd5b8181035f5f8673ffffffffffffffffffffffffffffffffffffffff1673ffffffffffffffffffffffffffffffffffffffff1681526020019081526020015f2081905550505b5f73ffffffffffffffffffffffffffffffffffffffff168273ffffffffffffffffffffffffffffffffffffffff16036110fc578060025f8282540392505081905550611146565b805f5f8473ffffffffffffffffffffffffffffffffffffffff1673ffffffffffffffffffffffffffffffffffffffff1681526020019081526020015f205f82825401925050819055505b8173ffffffffffffffffffffffffffffffffffffffff168373ffffffffffffffffffffffffffffffffffffffff167fddf252ad1be2c89b69c2b068fc378daa952ba7f163c4a11628f55a4df523b3ef836040516111a39190611422565b60405180910390a3505050565b6111ba82826106f9565b6111fd5780826040517fe2517d3f0000000000000000000000000000000000000000000000000000000081526004016111f4929190611731565b60405180910390fd5b5050565b5f5ffd5b5f7fffffffff0000000000000000000000000000000000000000000000000000000082169050919050565b61123981611205565b8114611243575f5ffd5b50565b5f8135905061125481611230565b92915050565b5f6020828403121561126f5761126e611201565b5b5f61127c84828501611246565b91505092915050565b5f8115159050919050565b61129981611285565b82525050565b5f6020820190506112b25f830184611290565b92915050565b5f81519050919050565b5f82825260208201905092915050565b8281835e5f83830152505050565b5f601f19601f8301169050919050565b5f6112fa826112b8565b61130481856112c2565b93506113148185602086016112d2565b61131d816112e0565b840191505092915050565b5f6020820190508181035f83015261134081846112f0565b905092915050565b5f73ffffffffffffffffffffffffffffffffffffffff82169050919050565b5f61137182611348565b9050919050565b61138181611367565b811461138b575f5ffd5b50565b5f8135905061139c81611378565b92915050565b5f819050919050565b6113b4816113a2565b81146113be575f5ffd5b50565b5f813590506113cf816113ab565b92915050565b5f5f604083850312156113eb576113ea611201565b5b5f6113f88582860161138e565b9250506020611409858286016113c1565b9150509250929050565b61141c816113a2565b82525050565b5f6020820190506114355f830184611413565b92915050565b5f5f5f6060848603121561145257611451611201565b5b5f61145f8682870161138e565b93505060206114708682870161138e565b9250506040611481868287016113c1565b9150509250925092565b5f819050919050565b61149d8161148b565b81146114a7575f5ffd5b50565b5f813590506114b881611494565b92915050565b5f602082840312156114d3576114d2611201565b5b5f6114e0848285016114aa565b91505092915050565b6114f28161148b565b82525050565b5f60208201905061150b5f8301846114e9565b92915050565b5f5f6040838503121561152757611526611201565b5b5f611534858286016114aa565b92505060206115458582860161138e565b9150509250929050565b5f60ff82169050919050565b6115648161154f565b82525050565b5f60208201905061157d5f83018461155b565b92915050565b5f6020828403121561159857611597611201565b5b5f6115a5848285016113c1565b91505092915050565b5f602082840312156115c3576115c2611201565b5b5f6115d08482850161138e565b91505092915050565b5f5f604083850312156115ef576115ee611201565b5b5f6115fc8582860161138e565b925050602061160d8582860161138e565b9150509250929050565b7f4e487b71000000000000000000000000000000000000000000000000000000005f52602260045260245ffd5b5f600282049050600182168061165b57607f821691505b60208210810361166e5761166d611617565b5b50919050565b61167d81611367565b82525050565b5f6060820190506116965f830186611674565b6116a36020830185611413565b6116b06040830184611413565b949350505050565b5f6020820190506116cb5f830184611674565b92915050565b7f4e487b71000000000000000000000000000000000000000000000000000000005f52601160045260245ffd5b5f611708826113a2565b9150611713836113a2565b925082820190508082111561172b5761172a6116d1565b5b92915050565b5f6040820190506117445f830185611674565b61175160208301846114e9565b939250505056fea2646970667358221220761a00cec27d84d8694ff1c49815f01d1bf47689dd487304ae20b1d66159a97864736f6c634300081c0033",
  "linkReferences": {},
  "deployedLinkReferences": {},
  "immutableReferences": {},
  "inputSourceName": "project/contracts/BurnableToken.sol",
  "buildInfoId": "solc-0_8_28-8f88694880c33824a6420a649d23f1db783d7eec"
}